:020000040800F2
:1000000090DF0020790200088102000883020008C6
:10001000850200088702000889020008000000002D
:100020000000000000000000000000008B0200083B
:100030008D020008000000008F020008A10A0008DD
:100040009302000893020008930200082D0900089B
:10005000930200089302000893020008930200082C
:10006000930200089302000893020008930200081C
:10007000930200089302000893020008930200080C
:100080009302000893020008930200080000000099
:1000900000000000000000000000000093020008C3
:1000A00093020008930200089302000893020008DC
:1000B00093020008930200089302000893020008CC
:1000C00093020008930200089302000893020008BC
:1000D0009302000893020008930200080000000049
:1000E0009302000893020008930200080000000039
:1000F0000000000000000000000000009302000863
:100100000000000093020008930200089302000818
:1001100000000000000000000000000000000000DF
:10012000930200089302000893020008930200085B
:100130009302000800000000000000000000000022
:100140000000000000000000000000009302000812
:10015000930200089302000893020008930200082B
:100160009302000893020008000000000000000055
:10017000000000000000000000000000000000007F
:1001800000000000930200080000000000000000D2
:10019000930200089302000800F002F800F05CF8F7
:1001A0000AA090E8000C82448344AAF10107DA45D2
:1001B00001D100F051F8AFF2090EBAE80F0013F0C8
:1001C000010F18BFFB1A43F00103184720CC0300AE
:1001D00040CC03000A444FF0000C10F8013B13F030
:1001E000070408BF10F8014B1D1108BF10F8015B90
:1001F000641E05D010F8016B641E01F8016BF9D183
:1002000013F0080F1EBF10F8014BAD1C0C1B09D1D9
:100210006D1E58BF01F801CBFAD505E014F8016B4B
:1002200001F8016B6D1EF9D59142D6D370470000DD
:100230000023002400250026103A28BF78C1FBD8EF
:10024000520728BF30C148BF0B6070471FB525F06B
:10025000FFFE1FBD10B510BD00F085F91146FFF778
:10026000F5FF20F03BF800F0A3F903B4FFF7F2FF2D
:1002700003BC00F0ABF9000009488047094800477B
:10028000FEE7FEE7FEE7FEE7FEE7FEE7FEE7FEE746
:10029000FEE7FEE704480549054A064B70470000A3
:1002A000F90A00089901000890D9002090DF002089
:1002B00090DB002090DB002053EA020C00F0698004
:1002C0002DE9F04B4FF00006002B1FBFB3FA83F56A
:1002D00003FA05F424FA05F65E4012BF1643B2FA9B
:1002E00082F502FA05F4C5F120051EBF22FA05FCCD
:1002F00044EA0C04203556EA044C4FEA144418BF73
:10030000641C4FF000084FF00009904271EB030CA1
:1003100039D3002919BFB1FA81F701FA07F6B0FA0B
:1003200080F700FA07F6C7F120071EBF20FA07FC86
:1003300046EA0C062037B6FBF4FCA7EB0507103F96
:1003400007F01F0BCBF120060CFA0BFB2CFA06F67C
:1003500044BFB3460026202FA4BF5E464FF0000BDB
:100360005BEA060C08BF4FF0010B19EB0B09ABFB66
:10037000027C48EB0608C01B06FB02CC0BFB03CC3F
:1003800071EB0C01C1E70B46024641464846BDE809
:10039000F08B13B54FF000004FF00001AFF3008079
:1003A000BDE81C40704740EA0103024630B59B0798
:1003B00010D14FF0013400E008C208C91D1B9D4355
:1003C00015EAC41FF8D013F0FF0102F8011B0DD08D
:1003D0001B0AF8E711F8013B002B02F8013B05D09E
:1003E00011F8013B002B02F8013BF3D130BD10B5F1
:1003F000431C02E010F8011B71B18107FAD14FF0E4
:10040000013202C88C1A8C4314EAC211F9D0C01A06
:100410000A0603D0C01E10BDC01A10BD0A0401D0C8
:10042000801E10BD0902FCD0401E10BD10B5203A40
:10043000C0F00B80B1E81850203AA0E81850B1E89D
:100440001850A0E81850BFF4F5AF5FEA027C24BF53
:10045000B1E81850A0E8185044BF18C918C0BDE84A
:1004600010405FEA827C24BF51F8043B40F8043B13
:1004700008BF7047D20728BF31F8023B48BF11F8C8
:10048000012B28BF20F8023B48BF00F8012B704722
:100490004FF0000200B5134694469646203922BF1D
:1004A000A0E80C50A0E80C50B1F12001BFF4F7AF68
:1004B000090728BFA0E80C5048BF0CC05DF804EB4A
:1004C000890028BF40F8042B08BF704748BF20F8B8
:1004D000022B11F0804F18BF00F8012B704700006D
:1004E0004FF0013C50F8042B51F8043B9A4221D1C3
:1004F000A2EB0C03934313EACC1317D150F8042B4F
:1005000051F8043B9A4215D1A2EB0C03934313EA32
:10051000CC130BD150F8042B51F8043B9A4209D16B
:10052000A2EB0C03934313EACC13DBD04FF0000093
:10053000704700BFD01A01BAB1FA81F101F0180179
:1005400022FA01F0CB40C1F12001DBB2C0B2C01AE7
:100550002CFA01F3D11A914311EAC311E6D1704785
:10056000704770477047754600F02CF8AE4605009E
:100570006946534620F00700854618B020B5FFF7BE
:1005800089FEBDE820404FF000064FF000074FF015
:1005900000084FF0000B21F00701AC46ACE8C009A1
:1005A000ACE8C009ACE8C009ACE8C0098D467047AA
:1005B00010B50446AFF300802046BDE81040FFF7B9
:1005C00054BE00000048704730D90020014918206F
:1005D000ABBEFEE726000200704700001A48016823
:1005E00041F0010101601948026843F2F0018A43B9
:1005F0000260026841F250031A43026082680A43B3
:100600008260426822F04C024260C2688A43C26043
:10061000016821F44C410160016841F40841016026
:10062000816841F44C418160016A094A11400162CC
:10063000016A084A11430162082181610421816134
:1006400040218161704700003038024000000240C4
:10065000FFFF0F0F000050501848016841F00201E1
:10066000016016481030016841F40011016014481F
:10067000016821F470410160016841F4204101608A
:10068000001D016841F0C0010160001D016841F4D6
:1006900070410160001D016821F470410160016832
:1006A00041F4A041016006482030016821F07F41FB
:1006B0000160016841F088410160704730380240B4
:1006C0000004024010B5FFF7C7FF1C484FF400417B
:1006D0000160002101601921021D1160174A7D216E
:1006E0001C3211601A21121D1160016841F48061F1
:1006F0000160016841F0010101601148016841F0A9
:10070000010101600F48016821F0030101600168E7
:1007100041F001010160416821F0010141600A4896
:10072000016821F44061016007480C30016841F420
:1007300080610160BDE8104000F09EBA00540040A6
:1007400030380240000002400004024010B5204C46
:100750004FF48000A061322004F024F84020A06112
:10076000C82004F01FF8012000F034F8962004F0AF
:1007700019F8112000F02EF8FF2004F013F8B22031
:1007800000F028F8052000F033F8052000F030F8DC
:10079000002000F02DF8332000F02AF8332000F07C
:1007A00027F83A2000F016F8052000F021F836204E
:1007B00000F010F8002000F01BF8212000F00AF8EB
:1007C000292000F007F8BDE810400A2003F0EABF36
:1007D00000000240054B00B54FF4802199614900AB
:1007E000996100F04FF90820986100BD00000240B7
:1007F000054B00B5042199614904996100F042F963
:100800000820986100BD00000000024030B5264875
:10081000016841F0805101602448016841F4807111
:100820000160234A10684AF2A55398423BD01E4803
:100830003030016841F00101016001688907FCD591
:10084000016821F440710160016841F48071016028
:10085000016841F4004101601549CA202C39086043
:100860005320086012484438046844F0800404604F
:1008700004686406FCD50E4D0E4C403D2C600C4CBB
:10088000483C256825F040052560094D0024503D71
:100890002C602D1D084C2C60046824F0800404603A
:1008A000FF200860136030BD4038024000700040F7
:1008B00050280040FF007F0001002100F0B51A4DD4
:1008C000CA232B6053232B60174B183B1C6844F042
:1008D00080041C601C686406FCD50A24B0FBF4F696
:1008E000B0FBF4F704FB1700360546EA0040B1FB05
:1008F000F4F640EA0630B1FBF4F604FB161140EAC8
:100900000120B2FBF4F140EA0110B2FBF4F104FB68
:1009100011210843044924390860186820F0800038
:100920001860FF202860F0BD2428004019480168A5
:1009300049052DD5016821F48061016016494FF405
:100940008000086015490120087012480C380068C2
:10095000C0F30541090901EB8101C0F3034202EB39
:1009600041010F4A1170C0F30621090901EB810111
:10097000C0F3032202EB41010A4A117000F00F019B
:10098000C0F3021000EB800001EB40000649087044
:10099000704700000C280040143C01400A00002071
:1009A0001002002011020020120200201D4A10B582
:1009B000CA201060532010601A481C38016821F4C6
:1009C00080610160011D0B685B07FCD5154C00239D
:1009D000103C2360036823F007030360036843F0BF
:1009E000040303600B6823F480630B60016841F427
:1009F00080410160016841F480610160FF20106066
:100A00000948016841F48001016007480830016825
:100A100041F4800101604FF0E0210820C1F800019D
:100A200010BD000024280040003C0140134801682C
:100A300041F480510160124800210160016841F0D9
:100A40000401016001680160016841F440710160C6
:100A5000016821F400610160016821F080010160FA
:100A6000016821F002010160016821F001010160CB
:100A7000016841F0400101607047000044380240C5
:100A80000030014005498A689207FCD508738868E0
:100A90008007FCD588680006FCD470470030014010
:100AA00003480168491C016001201EF0FBBE0000E4
:100AB000000000204FF0E02046F2A7114161002124
:100AC00081610721016170470A48016841F4803162
:100AD000016001688903FCD50648002108300160E7
:100AE000016841F0010101600168C1F38101012940
:100AF000FAD17047003802400248016841F47001A1
:100B00000160704788ED00E07EB5044600258DF851
:100B1000045001A9022000F0ABF808B101207EBD0D
:100B20009DF80400154E000707D0042269460320F3
:100B300000F026F820B102207EBD2571357016E048
:100B4000012121719DF800209DF8010002F00F02A3
:100B500040EA022020809DF802309DF8032003F037
:100B60000F0342EA0322628031707080B28002A9D2
:100B7000012000F07DF800207EBD00000400002070
:100B8000F0B5394D2B6843F480732B60374B364CEE
:100B90001F46143401E07F1E08D02668F607FAD0FD
:100BA000314E2A27103637601F4603E00120F0BD82
:100BB0007F1E0BD0D4F800C05FEA8C7CF8D52A4F9A
:100BC0001837D7F800C03060184603E00220F0BDA7
:100BD000401E0AD0D4F800C05FEA0C6CF8D5286833
:100BE00040F480702860184603E00320F0BD401EEA
:100BF00008D0D4F800C05FEACC7CF8D02B2030605D
:100C0000184603E00420F0BD401E09D0D4F800C00F
:100C10005FEA8C7CF8D538680020A2F1010C18E05E
:100C20000520F0BD604507D12F6827F480672F604D
:100C30002F6847F400772F601F4601E07F1E10D019
:100C4000D4F800E05FEA4E6EF8D537680F54401CC8
:100C5000C0B29042E6D3286840F48060286000204B
:100C6000F0BD0620F0BD000000540040A086010049
:100C70000122FFF785BF00000C4808B5416921F04B
:100C80000101416100214FF4FA530091009A521C76
:100C900000929A42FADB426942F001024261044842
:100CA0000091491C00918142FBDB08BD000002401D
:100CB00000350C0070B5044600256FF02F0608E0E3
:100CC0002068411C2160007805EB850106EB41019D
:100CD00045182068007800F004F80028F0D1284674
:100CE00070BD3038092801D80120704700207047B6
:100CF00010B54421074800F08DFE00221E21064851
:100D00001EF02AFE054CA06001F054FF0020207068
:100D100010BD000064170020692C00087801002035
:100D20002DE9F0470E46814617461146304600F041
:100D30001CF94FF0FF3A00287DD00022394630469A
:100D400000F0BFF800284FF0000075D1B6F904801C
:100D5000B6F900305246A8EB0301491C0AFA81F1AA
:100D60000FFA81FAB6F906C0B6F90210ACEB010C25
:100D70000CF1010C02FA8CF2B7F802C012B2ACEB23
:100D8000010C0FFA8CFCBCF1000F0EDD63F30F04B5
:100D900068F30F0501EB0C0061F31F4460F31F457E
:100DA000C9F800400120C9F80450B7F9061073884B
:100DB000CB1AD21A12B2002A13DDB6F906309942C4
:100DC0000FDA338863F30F04B38861F31F4463F3CE
:100DD0000F05114461F31F4509EBC001401C0C6075
:100DE0004D60B7F90220B6F902108A4200DD1146C3
:100DF000B7F90630B6F90620934200DA1A463B8866
:100E0000B6F900C0521AA3EB0C031BB212B2002BAE
:100E100010DD002A0EDD634463F30F058B1863F3C6
:100E20001F456CF30F0409EBC00361F31F441C6002
:100E30005D60401C01E01AE017E0B7F90430368825
:100E40009F1BAAEB070636B2002E0EDD63F30F04DC
:100E500061F31F44334463F30F05114461F31F45ED
:100E600009EBC001401C0C604D60BDE8F0875046A6
:100E7000FBE770B5B1F90030B2F90040A34200DCE5
:100E800023460380B1F90250B2F90240A54200DDC9
:100E90002C464480B1F90460B2F90450AE4200DA45
:100EA00035468580B1F90610B2F90620914200DB83
:100EB0001146C1800120AB4201DC8C4200DD0020E4
:100EC00070BDF8B50D460446B0F90000B1F9001048
:100ED0001646884247DBB4F90210B5F90220914268
:100EE00041DBB4F90410B5F9042091423BDCB4F9BC
:100EF0000610B5F90620914235DC96B3ADF8000036
:100F00006088ADF8020032466946284600F099F83C
:100F1000002827D0A088ADF800006088ADF8020056
:100F200032466946284600F08CF800281AD02088FE
:100F3000ADF80000E088ADF8020032466946284668
:100F400000F07FF800280DD0A088ADF80000E08800
:100F5000ADF8020032466946284600F072F80028D3
:100F600000D00120F8BD0020F8BDB0F90020B1F993
:100F700004309A4213DCB0F90420B1F900309A42EF
:100F80000DDBB0F90220B1F906309A4207DCB0F966
:100F90000600B1F90210884201DB012070470020F1
:100FA0007047F8B50D460446B0F90400B1F90010D9
:100FB0001646884243DBB4F90600B5F902108842B0
:100FC0003DDBB4F90000B5F90410884237DCB4F910
:100FD0000210B5F90620914231DC76B3ADF800007D
:100FE0006088ADF8020032466946284600F029F8CC
:100FF00018BBA088ADF800006088ADF8020032464A
:101000006946284600F01DF8B8B92088ADF8000000
:10101000E088ADF8020032466946284600F011F833
:1010200058B9A088ADF80000E088ADF8020032465B
:101030006946284600F005F808B10020F8BD0120F7
:10104000F8BD2DE9FC4114460E46B1F90020B0F977
:10105000001005468A423ADBB5F90400824236DCCC
:10106000B6F90270B5F90220974230DBB5F90630C7
:101070009F422CDC002C75DD401A9A1A401C521C31
:1010800000B212B200EBD07002EBD27240105210DC
:10109000904200DB1046844200DD0446ADF80010AB
:1010A000288800222044ADF804006888ADF80200CA
:1010B000688831462044ADF806006846FFF7C1FF56
:1010C00040B1BDF804002044ADF804003FE000202A
:1010D000BDE8FC81E8880022001BADF80200E8882A
:1010E000ADF8060031466846FFF7ABFF28B1BDF802
:1010F00004002044ADF8040011E0A8880022001B81
:10110000ADF80000A888ADF8040031466846FFF746
:1011100098FF50B1BDF80000001BADF80000BDF80D
:101120000200001BADF8020016E06888ADF802006E
:10113000688800222044ADF8060031466846FFF773
:1011400080FF70B1BDF80000001BADF80000BDF8D5
:1011500006002044ADF80600314668461BF0FAFE52
:10116000B6E7FFE70120B3E710B5B1F90040B2F9E7
:1011700000309C4200DA23460380B1F90240B2F904
:1011800002309C4200DA23464380B1F90440B2F9B0
:1011900004309C4200DD23468380B1F90610B2F989
:1011A0000620914200DC1146C18010BDF8B507460B
:1011B0001EF06EFB0025374C0646009537B1F868E7
:1011C000606038461EF096FC606802E010F05EFF3A
:1011D000606000691BF0BAFD6068406908B11BF0EF
:1011E000B5FD6068C0691BF0B1FD6068006A1BF066
:1011F000ADFD6068016991B11BF030FF20F01CFC6F
:1012000020F042F96068B0F85011D9B30068017C51
:10121000C9071DD0C0684068D0B1002713E0A0F80E
:101220005051F8BDC11991F8301151B900F5AC70A9
:1012300000F047FC616801EBC7010A6B0260496B73
:1012400041607F1CBFB26068B0F85011B942E9D864
:1012500060684FF48071303017F0B2F96068202177
:1012600000F5987017F0ACF96068A0F8505130465E
:101270001EF008FB009060680068436A13B12268A2
:101280000099984717F01AF800F032F8BDE8F840D6
:1012900000F002B83800002070B50A4D002400BFED
:1012A000C4EBC40655F8260008B117F07BF805EB2F
:1012B00086001C2117F084F9641CE4B2042CEFD3DF
:1012C00070BD000040180020084949680AE04A68DB
:1012D000824202D00A68824203D10A7E42F00102B1
:1012E0000A7649690029F2D1704700000C000020FD
:1012F000704700000421014800F08CBB5817002003
:101300002021014800F086BB701700202DE9FF4125
:101310000446DDE90A671D004FF0000002D1B6F572
:10132000807F2BD0039001900290ADF80C100090BC
:10133000ADF80410ADF80A20ADF80E203B46324659
:10134000294668461BF066FD3B463246294601A801
:101350001BF060FD3B463246294602A81BF05AFDB1
:101360003B463246294603A81BF054FDBDF9000058
:10137000BDF90430984209DA054608E02080491E8C
:101380006080A180521EE280BDE8FF811D46BDF94C
:101390000820BDF90C108A4201DA164600E00E461C
:1013A000B54203DA984206DB184604E08A4201DAC5
:1013B000104600E00846801E2080BDF90030BDF9CF
:1013C0000420934201DD1D4600E01546BDF90800EA
:1013D000BDF90C10884201DD064600E00E46B5421C
:1013E00005DD934201DD194604E0114602E0884222
:1013F00000DD0146891CA180BDF90230BDF906203F
:10140000934201DA1D4600E01546BDF90A00BDF918
:101410000E10884201DA064600E00E46B54205DAB3
:10142000934201DA194604E0114602E0884200DAEC
:101430000146891E6180BDF90230BDF90620934244
:1014400001DD1D4600E01546BDF90A00BDF90E108C
:10145000884201DD064600E00E46B54205DD9342B6
:1014600001DD194604E0114602E0884200DD014634
:10147000891CE18088E700002DE9F04115460E4601
:101480000746114C1EF004FA80462B463246394678
:10149000204614F0E3FF20B10020A062E06950B1C3
:1014A00010E02C21204617F08BF84FF00040A0628E
:1014B0000020BDE8F08140461EF0E4F9E06108B983
:1014C0000120E0612046F4E79417002010B51421B4
:1014D000074800F09FFA14F087FF40B1054901600A
:1014E00005494160054981600549C16010BDFEE7BD
:1014F0007C170020BD5D01083961010809630108FE
:10150000895D010870B50D4604461021284617F084
:1015100057F820680078012804D0022807D0042852
:1015200007D008E0A08A2880E08A688003E0E068AD
:1015300000E00A20686020684268002A03D029463B
:10154000BDE87040104770BD2DE9FE430446808A17
:1015500010B9E08A002874D0D4F82C805FEA080023
:1015600010D120460AF0A5FA5FEA000869D02046AB
:101570000CF02EFE00220921404613F069FE60782F
:1015800080075ED44FF4807900274E4645460021FF
:10159000284619F091FC384407B20021284619F07A
:1015A000A9FCC11700EB1160001210FB06F006B297
:1015B000284618F07DFC0500E9D10FB94E450CD046
:1015C000784201B24FF4803090FBF6F002B26B46E5
:1015D00004F1140000951BF01DFCADF80450ADF8AB
:1015E000085094F8400000F00F000328404616D041
:1015F00018F0B0FD0646404618F066FC03460C2085
:101600000090B4F916103246404609F0F1FDADF8ED
:101610000800404618F0AAFCC10713D018E018F0E3
:101620002DFD0646404618F0C9FC024603200090F6
:10163000B4F914103346404609F0DAFDADF8040061
:10164000E7E736E0BDF90410002901DDADF80450EC
:10165000810705D4BDF90410002901DAADF8045062
:10166000410705D4BDF90810002901DDADF8085087
:10167000000705D4BDF90800002801DAADF80850CC
:1016800002AA01A9204620F0F9FDBDF90820BDF904
:101690000410404600F08AFA6078800709D4208B55
:1016A000BDF8041008442083608BBDF8081008447E
:1016B0006083BDE8FE832DE9FC5F0446C06A5FEAF3
:1016C000000B71D094F8400000076DD015F058F968
:1016D000019000684021457E584619F037FD4FF0D3
:1016E000000818B9A4F81E80A4F81C80584618F009
:1016F00023FD8246584618F026FD064694F8400021
:101700004FF0640900F00F000C2802D003284CD0E1
:101710009AE0A4F81C8056B1B4F91E50002715F0C9
:101720002FF900684946407EC0F1640022E0E08B5A
:10173000C5F1640110FB01F191FBF9F0E08358461B
:1017400018F0C2FB0546584618F004FD02460C206E
:101750000090B4F91E102B46584609F049FDE0836D
:10176000024600231EE07A1917B210FB05F292FB25
:10177000F1F215B2002DF6D1ADF80070A4F81E807C
:101780006A460021204620F079FD41F6FF72BDF93E
:101790000030514258460AF023FBBDF800100123E7
:1017A000084402B200214CE09AE0A4F81E80BAF18D
:1017B000000F0AD0B4F91C50002715F0E1F80068BA
:1017C0004946407EC0F1640022E0A08BC5F164016F
:1017D00010FB01F191FBF9F0A083584618F0EEFBE5
:1017E0000546584618F04AFC034603200090B4F919
:1017F0001C102A46584609F0FBFCA0830146002332
:101800001EE07A1917B210FB05F292FBF1F215B245
:10181000002DF6D1ADF80070A4F81C8000226946B6
:10182000204620F02BFD41F6FF72BDF900305142F9
:1018300058460AF04DFABDF800100123084401B2E1
:10184000002258461AF0BEFDA08B002848D1E08B3C
:10185000002845D1C6B9584618F07CFC05465846C4
:1018600018F032FB002D06DC00280DDD002D02DA19
:1018700001232A4604E0002806DA0123404202B28E
:10188000002158461AF09EFDBAF1000F19D15846B2
:1018900018F094FB0546584618F0F0FB002D07DCC5
:1018A00000280EDD002D03DA01230022294605E081
:1018B000002806DA01230022404201B258461AF0FD
:1018C00081FD0A215846019A13F0C2FC6078800716
:1018D00006D414F8400F20F00F00207044F8148C48
:1018E000BDE8FC9F7FB50E46040003D110F0CEFB8F
:1018F00004002CD010F03EFC002828D094F82800DA
:10190000400724D4002506B3ADF80050ADF80250CE
:10191000204610F0D3FB401EADF80400204610F026
:1019200013FC401EADF806006A46314602A8FFF7D8
:10193000A0FA00280BD02068017C890708D5DDE9D2
:101940000001C4E90C01012029E0A4F850517FBD39
:1019500082690AB102A9904700260AE004EBC60199
:10196000002202A83031FFF7ACFA0028EFD1761C34
:10197000B6B2B4F85001B042F0D880B2202804D2F8
:1019800004EBC00002A9303004E0A4F8505104F187
:10199000300069460EF023F9B4F85001401CA4F859
:1019A000500160680028D2D01EF0B0F87FBD70B53D
:1019B000054600F012F804460CE02146284600F0E7
:1019C0001EF806462146284600F0A2F8204616F0EA
:1019D000E9FC3446002CF0D170BD002800D04068EE
:1019E000704700B503460022FFF7F7FF03E01846F3
:1019F000521C00F004F80100F9D1104600BD006847
:101A0000091D40587047006840587047002800D0B2
:101A10008068704700224260C91C21F00301826087
:101A20000160704770B504460068083016F02EFC5F
:101A3000050013D00146002220461FF025F9294653
:101A4000204662681FF01AF9616819B12A462046DB
:101A50001FF01AF96560A06800B9A560284670BD3E
:101A60002DE9F0410C4606000AD04CB1FFF7B5FF56
:101A7000A04208D13046FFF7D5FF051E01D01EE079
:101A80000020BDE8F0813068083016F0FFFB051E2D
:101A9000F7D030682A460759304639461FF0EEF82D
:101AA0003A46294630461FF0EFF82A46214630468E
:101AB0001FF0EAF82246294630461FF0DFF8284694
:101AC000DFE770B504460068083016F0DFFB05005C
:101AD00013D00146002220461FF0D0F829462046A8
:101AE000A2681FF0D1F8A16819B12A4620461FF05C
:101AF000C5F8A560606800B96560284670BD28B16A
:101B0000416809B9806808B100207047012070471A
:101B100070B504000DD0FFF760FF00228842204618
:101B200008D1FFF76CFF6060011E01D000221EE0AB
:101B3000A26070BDFFF76AFF8842206808440AD19E
:101B40000168A16029B12046BDE8704000221FF065
:101B500095B8626070BD05682046FFF750FF0646E5
:101B60000246294620461FF089F82A46314620467B
:101B7000BDE870401FF088B810B504460068826860
:101B80000AB12146904720680068002801D02060F3
:101B9000F5E710BD8068002801D0B0F91600704745
:101BA0008068002801D0807E8009704770B5164695
:101BB00005460C4651EA06001AD0284617F066FA88
:101BC000A86801233246018A21440182A868418A1B
:101BD000314441822146284619F04CFE00220B2157
:101BE000284613F035FB012803D1284619F09CFD47
:101BF000012070BD77B581B00E46050017D0622276
:101C000019F088F8040012D0206880B128463146C7
:101C1000632219F07FF810F0FF0208D023682046F5
:101C2000039998470090BDF80000ADF80C000398A8
:101C300004B070BD2DE9F047074692B0408C1A9E63
:101C400040F00800788490463A8499468A46328962
:101C5000384619F05FF80546A7F8209032895146BA
:101C6000384619F057F80446788CA54220F0080051
:101C7000788403D12904B1EB044F68D0A7F8208001
:101C800032895146384619F045F805468046A7F88E
:101C90002090514638460BF0F7FA318900682A4601
:101CA0001CF03EFD30890B2823D147F6FF794D45C6
:101CB00001D04C451DD1384619F0FFF900EBD0702A
:101CC0004510384618F0B3F800EBD0704010C84506
:101CD00006D1691C431C994200DA00E01946884687
:101CE0004C4506D1691C421C914201DA6C1C00E093
:101CF00014461948FFF796FE05002BD02F60C5E962
:101D000003843089A8806846C5F808A00DF0DAF988
:101D10001248FF21CDE9005011480290114803906C
:101D200000200890CDE9090130880B9070889DF85B
:101D3000421040420C90F0680790002060F30001D0
:101D40008DF842103069069068460DF02FFA12B0F7
:101D5000BDE8F087FEE700008817002095580208CC
:101D6000815A0208DD59020814210148FFF752BECA
:101D7000881700202DE9F84F002590468946064631
:101D80002C460427E5E000BFF16807EBC4000858C3
:101D900082017AD480B230EA090211D05FF00002E9
:101DA00030EA08000ED0002082426ED051F834A0F4
:101DB0006A46102150461CF011FA002871D103E048
:101DC0000122EDE70120EFE76A46112150461CF0A1
:101DD00005FA002865D16A46122150461CF0FEF92A
:101DE00000285ED16A46132150461CF0F7F90028FE
:101DF00057D16A46152150461CF0F0F9002850D101
:101E00006A46142150461CF0E9F9E8BB6A460A21EB
:101E100050461CF0E3F9B8BB6A466B2150461CF0F3
:101E2000DDF988BB6A466C2150461CF0D7F958BBD7
:101E30006A46012150461CF0D1F928BB6A460421AC
:101E400050461CF0CBF9F8B96A46022150461CF006
:101E5000C5F9C8B96A46032150461CF0BFF998B9C4
:101E60006A46052150461CF0B9F968B96A46062150
:101E700050461CF0B3F938B96A46322150461CF07E
:101E8000ADF908B96A4601E00BE061E06E21504609
:101E90001CF0A4F928B96A466D2150461CF09EF941
:101EA00010B10320BDE8F88F6A46692150461CF046
:101EB00095F9E8BB6A466A2150461CF08FF9B8BB19
:101EC0006A466E2150461CF089F988BB6A466D212E
:101ED00050461CF083F958BB6A46372150461CF027
:101EE0007DF928BB6A46382150461CF077F9F8B9CD
:101EF0006A46352150461CF071F9C8B96A4640213E
:101F000050461CF06BF998B96A46452150461CF0C2
:101F100065F968B96A46412150461CF05FF938B945
:101F20006A46422150461CF059F908B96A4600E059
:101F30000AE0432150461CF051F928B96A4649216C
:101F400050461CF04BF908B1022501E005B9012506
:101F5000641C708CC0F30510A0423FF615AF2846F4
:101F6000A0E70000014840687047000038000020EA
:101F70007047C0F30410072800D9072070470000FD
:101F8000A0F57F41FF3905D0002804D0712803D285
:101F900008490AE01F2070470749713880B2096874
:101FA00029B1064A5268904201D2085C704700206D
:101FB00070470000F89F0208A4010020B80100202B
:101FC00010B518210348FFF725FD034901200870CB
:101FD00010BD000034170020C00100202DE9F041A1
:101FE00090460C46050015D0FEF701FA0A4F06464A
:101FF0002146BA68284690470446BA6828194146DF
:1020000090470146701A03E06218AA5C2A55641CC6
:10201000A042F9D2BDE8F081D40100202DE9F041C1
:10202000094D90460E466A681C4607461946904779
:10203000306020B120686A68384400219047C8F8B1
:102040000000BDE8F0810000D40100202DE9F04F30
:1020500087B08A46DDE910581F46934604460021A2
:1020600005B129805CB12078002809D0BAF1000FB1
:1020700005D0002618F0060F15D0002004E000203F
:1020800007B0BDE8F08F401C215C0A2904D00D295F
:1020900002D00029F7D100E0401C002DF0D04FF015
:1020A000FF312980ECE75FEA887001D541F6FF77C0
:1020B000894608468DF81410049127E00498CDF85D
:1020C000189068B34FF0000C05AA06ABCDF80CC011
:1020D000CDF80080CDE9013220443B465A465146B6
:1020E0001DF076FE06997A1A314417B20EB288B105
:1020F00004990144049120780A280BD00D2809D0B6
:10210000605C0A280FD00D280DD00846205C08B16D
:10211000002FD3DC049848B105B12E800498AFE7B6
:102120004FF0010CD0E7481C0490F3E7064A04A9DD
:10213000204652689047002DF0D0014600225046BC
:1021400013F09AF906B2E8E7D40100202DE9F04136
:102150001746884606001ED0002F1CD0FEF747F910
:1021600004463846FEF743F9050014D00B4A2C44C8
:102170004146926830469047411903E0621BB25CC9
:102180003255641EA142F9D930442A463946BDE889
:10219000F04116F0D7B9BDE8F0810000D40100206D
:1021A00000230278232902D0012A0DD00FE02AB1A2
:1021B0000021012A04D0022A04D008E0012101E014
:1021C000017004E0017001E0202902D001231846CB
:1021D00070470221F6E72DE9F0410E46804602469F
:1021E0000021334608461EF031F804460027401C03
:1021F00016F04CF8050008D02F5533464246611CB6
:102200001EF024F82846BDE8F081FEE72DE9F047EE
:102210001E4614460D468246DDF8209015E000BFAC
:102220004FEA540808FB0657394650464A4690473D
:10223000002808DD44F30000C0EB540407EB06055A
:10224000A4F1010401E005DA4446002CE8D120465F
:10225000BDE8F0873846FBE72DE9FC5F9B460CABF9
:102260008A468146DDE9116093E81210DDE90F57D7
:102270005FEA80784FF030031AD45EB15FEAC0782D
:1022800008D000F00C0858EA0C0803D0761E01E0D4
:102290000B55641CBC4204D2202CF9D301E00B5531
:1022A000641C5FEAC07803D0B44201D2202CF6D37C
:1022B0005FEAC06825D55FEA40580AD44CB1BC42F9
:1022C00001D0B44205D1641E03D0102D03D1641E89
:1022D00004E0102D02D0022D0AD00EE0850603D4B2
:1022E000202C1ED2782506E0202C1AD2582502E098
:1022F000202C16D262250D55641C202C11D20B55B2
:10230000641C202C0DD2BCF1000F01D02D2306E05F
:10231000430701D52B2302E0030702D520230B55E9
:10232000641CCDE900BAC846154681468B46AA46CC
:10233000800714D1274607E02A46DDE900316D1CED
:102340002020C446E0477F1CB742F5D307E02A4669
:102350006D1C641EDDE900311BF80400C047002C31
:10236000F5D15FEA897006D409E02A46DDE900313B
:102370006D1C2020C047A5EB0A00B042F5D32846CB
:10238000BDE8FC9F2DE9F04F8FB099468B46DDE903
:102390001818DDE91C63DDE91A47924686460022DB
:1023A00009B923F01003580507AD00D5C9B1B1FB39
:1023B000F4F004FB1010C0B20A2801D2303009E05A
:1023C0005FEA836C02D54FF0410C01E04FF0610CE5
:1023D00060440A38B1FBF4F1A854521C09B1202A18
:1023E000E5D3CDF80880CDE90563CDE90052CDE90C
:1023F00003474B46524659467046FFF72DFF0FB034
:10240000BDE8F08F2DE9FF4F8FB01CACDDE92395BF
:1024100094E8030820AC94E8C004002450EA0102C8
:1024200001D125F010056A050DF11C0802D550EA0E
:10243000010217D032463B46FDF73EFFD2B20A2AD0
:1024400001D2303206E0AB0601D5412300E0612322
:102450001A440A3A08F80420641C50EA010201D028
:10246000202CE7D3CDE90084CDF808B0CDE905955F
:10247000CDE9036A0FAF97E80F00FFF7EDFE13B049
:10248000BDE8F08F9A4200D2885470477047000030
:102490002DE9FF4F89B005460A980024924600288E
:1024A00000D1FE4D8FE1252804D02246641C5346FE
:1024B0000A990BE2491C4FF0000808460C9101787C
:1024C0002B2919D004DC202919D0232904D119E0A3
:1024D0002D290ED0302909D00026C8B2FEF701FC04
:1024E000B0B10CA8FEF7E6FB06461FE048F001017C
:1024F0000AE048F0020107E048F0040104E048F077
:10250000080101E048F01001401C88460C90D6E715
:102510000C9908782A2809D1169840C81690002EE0
:1025200002DA48F002087642491C0C910C984FF0F0
:10253000000B01782E2919D1401C0C9048F48068BA
:102540000078FEF7CEFB20B10CA8FEF7B3FB834664
:102550000CE00C9A10782A2808D1169802C8169018
:10256000002900DC0021521C8B460C920C9801784B
:102570006C290AD004DC68290FD06A2919D128E017
:10258000742929D07A2914D126E0401C0C900178B6
:1025900048F480786C291CD00BE0401C0C9001782A
:1025A00048F08008682904D148F04001401C884662
:1025B0000C9002460078692822D015DC62281FD0D2
:1025C0000DDC252871D050281AD058287FF46DAF23
:1025D00016E048F40071E9E748F48071E6E7632803
:1025E00078D06428F2D10BE0732874D004DC6F2813
:1025F00006D07028EAD103E0752801D07828E5D10B
:1026000078280DD058280BD070280BD0502809D02E
:102610006F2816D0622816D00A2128F0100016E084
:10262000102107E05078102148F48878562804D10A
:10263000521C0C921078582807D01078502804D0DB
:1026400006E0082109E0022107E048F0200080466A
:102650001078692803D0642801D028F00C085FEABC
:10266000485001D528F00108107869281ED0642848
:102670001CD0562864D05FEA885072D5169804ABF7
:10268000C01D002283E806080292CDE9076820F009
:1026900007005346F0E80212CDE9001216902246D8
:1026A00028460A99FFF7AEFE89E00AE15FEA885002
:1026B00024D5169804AFC01D20F00703F3E80202EA
:1026C0001693002387E80A08CDE90768002A03DA91
:1026D000012102E080E0A6E00021002302911946DA
:1026E0001B1A914101DA114603E00021404261EBDF
:1026F000020153462246CDE90001D1E75FEAC85006
:1027000004D5169804C80FE0524215E05FEA48600D
:1027100003D5169810F8042B06E05FEA0860F0D5A0
:10272000169830F8042B12B21690CDE9021BCDE9B1
:102730000468D00F002AE7DDCDE9002053461EE0F3
:102740001698AAEB040202C8169048680068009028
:102750000A980B6801192846FFF79AFE04442FE0F7
:10276000FFE75FEAC8500CD5CDE9021BCDE904684C
:1027700016980021534604C8CDE900211690224640
:1027800019E05FEA486003D5169810F8042B08E0BA
:102790005FEA0860169803D530F8042B92B200E087
:1027A00004C816900020CDE90020CDE9021BCDE938
:1027B00004685346224628460A99FFF7E3FD04467B
:1027C0000C98401C0C900C99087800287FF46BAE94
:1027D00054457DD222467DE001275FEA887006D508
:1027E00009E02246641C534620200A99A84738462F
:1027F0007F1CB042F5D316992246641C11F8040BD5
:10280000169153460A99A8475FEA887006D4D7E71D
:102810002246641C534620200A99A84738467F1C4C
:10282000B042F5D3CCE7169850F8049B16904B466F
:10283000BBF1000001D0014601E04FF0FF314846F6
:1028400000E0401C02780AB1491EFAD2C71A5FEABA
:10285000485003D558465F4500D307465FEA887065
:1028600006D512E02246641C534620200A99A84748
:1028700038467F1CB042F5D307E000BF224609F17D
:102880000109641C53460A99A84799F8000040B111
:102890005FEA4851F2D5BBF1010B01E08D2400083D
:1028A000ECD25FEA887006D48AE72246641C53465D
:1028B00020200A99A84738467F1CB042F5D37FE70D
:1028C00006E02246641C534625200A99A84777E76C
:1028D000AAF10102534600200A99A8470DB02046EC
:1028E000BDE8F08F10B502004FF000000CD04B1E79
:1028F000194200D0FEE70A44521E9A43B2F5803FC7
:1029000002D20C2A01D9104610BD0C2010BD08447B
:102910004A1E401E9043114200D0FEE7704700005F
:102920002DE9F0410F4601210025044641862E463F
:102930000BE01B49FDF7D4FD10B16D1CADB202E0F8
:10294000608E401C6086761CB6B257F8260010B127
:1029500001780029EDD1208EA8421ED0A06A002661
:1029600010B115F01FFDA662E06A10B115F01AFD56
:10297000E662E80015F08AFCA06238B1680015F044
:1029800085FCE06218B1A16A11B102E0FEE7FEE742
:102990000025690015F014FE2586BDE8F0810000D1
:1029A000E40501082DE9F84F8146407A0F4600F012
:1029B0000700022819D010468046974200DD3A46AB
:1029C000164603202A4C2B4A00EB460020F0030554
:1029D000A06811681035411A636805EB010C9C452D
:1029E00005D2416821F0004124E00846E4E79D4219
:1029F00019D892464FF0FF3B48196168884210D9B8
:102A0000002269461C48CDF800B00BF0BBFF002245
:102A100069461A480BF0B6FFA168DAF80000091AF7
:102A2000EAE7A068DDE7284615F030FCC0B1416850
:102A300041F0004188EA6702416089EA02010160D1
:102A4000416801F04041491C31F08041416086817C
:102A5000A0F80E8005D500F110018160BDE8F88F67
:102A6000FEE7A16801F1100229448260A160F5E748
:102A700040000020A0010020A1BA0008E5E90008FC
:102A800070B586B000224A4C8DF808208DF80C20D5
:102A90008DF81020E2888A4201D0FF22A270E180E6
:102AA00090F83C20142302F003024FF4B475012A7D
:102AB00024D0022A5ED0A578AA4211D010F8265F51
:102AC00005EB051505EB4505B5FBF3F525704078DD
:102AD00000EB001000EB4000B0FBF3F06070A27060
:102AE00004AA03A8CDE9000201EB41004FF6FF71F3
:102AF00001EA400002AB627821781BE0A678B2427E
:102B000010D0868C06EB46067602B6FBF5F5A5805E
:102B100090F8270000EB001000EB4000B0FBF3F052
:102B20006070A27004AA03A8CDE90002C9B202AB8A
:102B300062783AE008F0C6FC9DF810109DF80C0091
:102B4000CB08BDF800109DF8082063F30401ADF830
:102B500000108108BDF8000061F34A10D10880B26E
:102B600061F3CF20ADF8000080B20090BDF8000006
:102B700006B070BDA678B24210D0868C06EB460631
:102B80007602B6FBF5F5A58090F8260000EB001064
:102B900000EB4000B0FBF3F02070A27004AA03A881
:102BA000CDE90002CAB2217802ABA088C2E70000DA
:102BB000EC00002010B5084C012020700748FEF7FB
:102BC0000CFF0028A06803D0BDE810401CF09EBF99
:102BD000BDE810401CF08EBF780100206417002073
:102BE00010B5044690F84200A16B820709D4B4F8EE
:102BF00040204AB1A2F57F43FF3B1BD0521EA4F8F0
:102C00004020B4F84020AAB909B1820712D5214664
:102C10001448FEF77DFFFFF7CDFFE16809B12046BC
:102C20008847216909B1204688472046BDE8104001
:102C300015F0B8BBE26B52422263002911D0820723
:102C400002D4626B524222634210521C62F3410072
:102C500084F84200A26A206A2262A062E06AE1620D
:102C6000A06310BD6417002070B5304D68681CF07B
:102C700009FE0646687880F00100687047E0002091
:102C8000287094F842006978C0F380028A4242D0EA
:102C900061F3820084F84200216B8A19030719D47A
:102CA000002917DC002A15DBC00709D1616939B199
:102CB00020468847216A01442162A16A0844A06233
:102CC000A16809B12046884794F8420040F0080006
:102CD00084F84200206B8019206316D4E16A884290
:102CE00000DD2163E169204688470146606A884229
:102CF00004D0616262680AB120689047D4E90B0190
:102D0000814202DB2046FFF76BFF287818B10848A4
:102D1000FEF763FE03E021460548FEF770FE04005F
:102D2000ADD11CF0B5FD686070BD000078010020D9
:102D30006417002070B5044640680D4608B1FFF7DF
:102D4000F9FF2268002A04D029462046BDE87040D9
:102D5000104770BD89B20CF0A7BE89B20CF0E0BE7E
:102D60002DE9FF4F99B09846DDE926B12D9816461A
:102D70008A464FF00009042811D0052811D00628F2
:102D800012D0142870D101270225002418FB06F068
:102D90000E901A98401E0D90701E069051E100276B
:102DA000F2E701270325F0E701270225FFF7DAF80C
:102DB0000068D0F83890E8E7289860430BEB2022B1
:102DC000299860430AEB202110124FEA212E7DD46E
:102DD0001A9B98427ADABEF1000F77DBB64575DAB6
:102DE000D2B2CBB2802A05DAC2F17F024FF0FF31B6
:102DF000520003E001215200A2F580720992802B5B
:102E000005DAC3F17F034FF0FF325B0003E00122DC
:102E10005B00A3F580730A930EFB080C199B0CFB57
:102E2000053307934318119372D4DDF834C063451A
:102E30006EDC1EEB02036BD4DDF818C0634567DC63
:102E4000DDF81CC011FB05C1CDE915C112FB08F16D
:102E500001FB05C10C91D7B32D99052905D0142983
:102E60000BD0062955D066E0EFE0159880780790E2
:102E70000C9881781698807810E0199A0E990EFBBC
:102E800008FC02EB41010A180EFB08111CF80200B5
:102E90000790119803FB08F3085C995C079A91422C
:102EA0000AD00A9A11FB02F20A99C1F580730799B8
:102EB00011FB0321C1F30721079A90420DD0099A13
:102EC00010FB02F20998C0F5807301E02FE035E0B5
:102ED000079810FB0320C0F3072008442C994008F2
:102EE000085527D015980178407801EB0020ADF8FF
:102EF0000C000C980178407801EB0020ADF8100030
:102F000016980178407801EB0020ADF8080023E026
:102F10004CE0159801881FFA89F0814207D00C997E
:102F20000988814203D016990988814203D12C99DE
:102F30000020085583E0FF210846CEE71598008859
:102F4000ADF80C0016980088ADF808000888ADF8B8
:102F500010002C98FF210155BDF80C00BDF8101091
:102F6000884209D1BDF80810884205D12B98BDF8D8
:102F70000C1000EB440017E00A98C2B2DDE9031020
:102F80000EF06AFC04900998C2B2DDE902010EF06D
:102F900063FC7F22029004990EF05EFC00902B9857
:102FA000BDF8001000EB4400018048E0079B93F857
:102FB00000C05B780CEB0323DDF8ACC09BB22CF8AF
:102FC0001430DDF8B4C0BCF1050F06D0BCF1060F1B
:102FD00006D0BCF1140F09D10AE0079B9B780FE0E3
:102FE0001FFA89FC634501D1002309E0FF2307E0B4
:102FF000199B0EFB083C0E9B00EB43031CF80330AF
:1030000008B9002905DBDDF834C0604503D100298B
:1030100001DD09980AE0BEF1000F01D1002A04DBAE
:1030200006998E4508D1002A06DD0A98C0F1FF00F6
:1030300010FB03F0010A00E000212C980155641CEC
:1030400024B22A988442FFF6B7AE1DB0BDE8F08FD7
:1030500010B5818F92B00446A9B168460CF032F8E1
:103060000B480121CDE90040A08F0B900020089073
:10307000CDE90901074807900748039068460CF01E
:1030800095F812B010BD12B0BDE810401DF04CBF55
:10309000A10F020883F10008A30F020810B504462F
:1030A000406882080AD0496821F00301091D0844DC
:1030B0006060204600F042F8204610BDFEE7406800
:1030C000103120F00300884201D301207047002016
:1030D00070472DE9FC47054648680C4620F0030080
:1030E00001AA69461DF01AFCDDE9007005EBC71165
:1030F00001EB80098046D9F83C0060B164B1C4E9B5
:10310000020504F10806C46030460421FFF7FFFB06
:10311000864202D0FEE7FEE7FEE7C9F83C40012008
:10312000296900FA07F21143296105EB870100FACA
:1031300008F04A6902434A61BDE8FC8710B50446BD
:1031400000F087F8046010BD2DE9FC4706464FF0FB
:1031500000000D0000900746019042D00C46E94661
:103160000DF10408802907D3084622F08BFB411F8C
:1031700001208840401E04444246494620461DF036
:10318000CDFB009C0A2C2CDA06EB8400019A4069E6
:103190004FF0FF3101FA02F210400CD1641C30698B
:1031A000A14008401DD022F065FB0446009006EBCC
:1031B0008000406978B122F05DFB034606EBC41144
:1031C000019001EB8000C76B5FB1786820F00300CD
:1031D000A84201D2FEE7FEE739463046009A1EF0CB
:1031E00079FD3846BDE8FC8710B50446FFF7A6FF19
:1031F000416841F002014160606840F00100606098
:1032000010BD10B5044600F024F8416821F0020119
:103210004160606820F00100606010BD70B5064636
:103220000D46084600F015F8040010D02079C007BC
:103230000BD0686880080BD02146304600F03CF87F
:1032400021462846FFF72AFF0546284670BDFEE7BF
:10325000FEE7426800F1080122F00300001F084465
:10326000910800D1FEE7704770B506460C004FF09C
:1032700000001ED0F2B120791546C0071BD01146C0
:103280002046FFF71CFF78B12946204600F025F8BC
:1032900005462046FFF752FF6868294640F00200C5
:1032A00068603046FFF715FF2046FFF7AAFF04F1DC
:1032B000080070BDFEE7FEE77CB5054648680C4691
:1032C00020F0030001AA69461DF028FBDDE9002378
:1032D000214628461EF0FEFC7CBD2DE9F0410D463E
:1032E000044600F10801281F0E18606806F108075F
:1032F00020F00300401BA0F1040838460421FFF72A
:1033000006FB874200D0FEE7606820F0030108EB6F
:103310000500001D814200D0FEE7307900F0030077
:1033200040EA0800706020F003000C2800D2FEE79D
:10333000207900F00300284360603046FFF754FF17
:103340003046BDE8F08138B5044613F019FB054658
:1033500013F04BFB0028204605D0218FE18618F0A2
:10336000E3F9012038BD11F031FD002820461ED0C0
:1033700011F000FC218FE08E81420CD02087E08E7E
:1033800000906A461C21204611F062FF0128E9D115
:10339000204618F0C9F9284613F033FB0428E0D181
:1033A000204616F03FFD002112F05FFCD9E711F036
:1033B00069FDD6E770B511F047FF054616F078FDB8
:1033C000044628460DF0D6F901462046BDE8704077
:1033D00000221BF085BD00002DE9F04F0D4687B09F
:1033E0000446002116F052FC60B32946204600F046
:1033F00061FA2946204600F06FF80021204617F0B8
:1034000075FB05900021204617F024FC0490002154
:10341000204617F036FA012800D00020804600210F
:10342000204617F079FD07460021204617F0A4FA40
:1034300042F2D17906464F450BD1608C000508D485
:10344000012707E007B02846BDE8F04F1C2115F022
:10345000B7B80027204616F097FCDFF878A083461F
:1034600020460021BAF8042017F054FCD5F810C00B
:10347000AB682968CDF800C0CDF80C80CDE90131EA
:10348000C2B239465846059B09F070FF28834E4565
:1034900004D1608C400501D4012600E000262046BE
:1034A00016F058FC074620460021BAF8082017F00D
:1034B00031FCC2B2686900246B68E9688DE81B00C2
:1034C00031463846049B09F051FF688307B0BDE8D8
:1034D000F08F0000600000202DE9F34F81B00C4612
:1034E000019809F0C5F90646019816F04DFC824690
:1034F000304601F010F82061400014F0F5FE206025
:103500002069400014F0F0FE002541F69A79A06091
:103510003AE036F91510DFF82081494533D100270C
:10352000DFF818B11FE03946019816F0AFFB594695
:10353000009017F012FEA8B9009809F0ABF9012825
:1035400010D1009809F09CF9A8420BD1009817F00F
:10355000B4FD4146404501DA084602E0009817F004
:10356000ACFD80467F1C019816F0A2FBB842DAD869
:10357000B8F1000F03DBA16821F8158003E0A16812
:10358000002021F815006D1C2069A842C1D8002533
:103590002F46284641F69B784B4615E036F9101029
:1035A000414504DB0D44A5F5F8559B3D0BE09942E0
:1035B00004D1A16831F81010394403E0A26822F860
:1035C000101039440FB2401C21698142E6D8002115
:1035D000019817F08BFA2169C1F1010200FB02A0EA
:1035E000C01B00B2002800DA002000224FF0FF3399
:1035F0001146C44611E000BF36F9117067450BDB78
:10360000A7F5F8579B3F3AB210FB02F3B3FBF5F373
:10361000A76827F811300B46491C27698F42EBD861
:10362000002B07DBA91A4143B1FBF5F1401AA16851
:1036300021F81300BDE8FE8F01E0FFFF0100060046
:103640002DE9F14F00221146009818F0FDFF0021EE
:10365000009817F04FF904460021009817F00CFB72
:1036600020440FFA80F90021009817F0F7F9204460
:103670000FFA80F8009817F0B1F800EB090101EBA0
:103680000800DFF898A006B25446009816F010FB28
:10369000074600252AE0009821498068006850F814
:1036A0002500834617F059FDF8B9584618F094F8EC
:1036B00040BB0021584617F0B5F818B3012821D0B7
:1036C00002281FD003281DD00021584617F03CFCCB
:1036D00058B9BBF81A10BBF81600081A401C00B203
:1036E0004844A04200DB044624B26D1CBD42D2D344
:1036F000544504D004EB080000B2B04200DC304670
:10370000BDE8F88F0098BBF91A10B0F91600081A36
:10371000411CA142E8DB0C46E6E7000001E0FFFFA8
:10372000010004002DE9F84F00228046114618F0F0
:1037300075FF0021404617F0DDF8044600214046A1
:1037400017F040FA20440FFA80FA0021404617F0A3
:10375000EBF920440FFA80F9404617F04DF800EBE2
:10376000090101EB0A00DFF844B105B25C464046AE
:1037700016F09EFA07460021404617F070F801281F
:103780004FF0000644D078E0D8F8080048490068B7
:1037900050F82600009017F0E0FCC0BB009818F02D
:1037A0001BF850B10098B8F91810B0F91400091AB4
:1037B000481CA0422ADB4C1C28E00021009817F08E
:1037C00031F858B1032809D0062807D0082805D0B9
:1037D0000021009817F0B2FB58B118E00098B8F932
:1037E0001810B0F91400081A411CA1420EDB0C4657
:1037F0000CE00098143000900CF06BFA5044A0429A
:1038000004DB00980CF065FA00EB0A0424B2761C85
:10381000BE42B9D35C453BD004EB090033E000BFA6
:10382000D8F808002249006850F82600009017F0E8
:1038300094FC08BB009817F0CFFF60BB00210098F4
:1038400016F0F0FF38B3012825D0042823D007282C
:1038500021D00021009817F077FB68B90098143048
:1038600000900CF036FA4844A04204DB00980CF0BB
:1038700030FA00EB090424B2761CBE42D0D35C457A
:1038800006D004EB0A0000B2584501D0A84200DC83
:103890002846BDE8F88F0098B0F91810B8F9140060
:1038A000091A481CA042E6DB4C1CE4E701E0FFFFDC
:1038B000010004002DE9F84F0C46834609F0DCFBBB
:1038C000064600F028FE6061400014F00DFD6060C7
:1038D0006069400014F008FD002541F69A79E06027
:1038E0003AE036F91500DFF82881484533D1002742
:1038F000DFF820A11FE03946584616F0C7F95146B7
:10390000009017F02AFCA8B9009809F041FC0128A2
:1039100010D1009809F032FCA8420BD1009816F0A3
:1039200086FA4146404501DA084602E0009816F062
:103930007EFA80467F1C584616F0BAF9B842DAD8AB
:10394000B8F1000F03DBE16821F8158003E0E168BE
:10395000002021F815006D1C6069A842C1D800251F
:103960002F46284641F69B784B4615E036F9101055
:10397000414504DB0D44A5F5F8559B3D0BE099420C
:1039800004D1E16831F81010394403E0E26822F80C
:10399000101039440FB2401C61698142E6D8002101
:1039A000584617F057F98146584616F0D3F90146A4
:1039B0006069C0F1010209FB0210C01B00B20028BF
:1039C00000DA002000224FF0FF331146C44610E019
:1039D00036F9117067450BDBA7F5F8579B3F3AB2F4
:1039E00010FB02F3B3FBF5F3E76827F811300B4641
:1039F000491C67698F42EBD8002B07DBA91A4143AA
:103A0000B1FBF5F1401AE16821F81300BDE8F88F29
:103A100001E0FFFF010006001CB50B880489234468
:103A2000ADF800304B8844892344ADF802308B88D0
:103A300004892344ADF80430C98843891944ADF89A
:103A400006104369694698471CBD00002DE9FF4FE9
:103A500089B0C8781A9CC0070D46002801D0F848E4
:103A600000E0F848069001D0F74800E0F7480490DD
:103A700001D1F54800E0F5484FF010034FF00C0E6F
:103A80004FF0080BCDF814006188A2884FF0000AAF
:103A9000A1EB0201504609B25246D4F810C00FE023
:103AA00002EB8207E66803EB870816F808805FEAF6
:103AB000C87809D00BEB8707F65B891B09B2521C4B
:103AC0009445EDD8002254E00EEB8707F65B3044B6
:103AD00000B2F4E7E66802EB820703EB870CB1461D
:103AE000CDF820C016F80C60F60741D1002872D03E
:103AF00091FBF0F80EEB8706079639F8066006FB97
:103B000008F60FFA86FCCDF800C04FF0060C0CEB5F
:103B1000870C042639F90C8006EB8706DDF800C017
:103B200039F90660E04500DCC446664504DC009EC9
:103B3000C446B04500DC6646DDF800C00196664527
:103B400006D0DDF820C04FF00108C24649F80C80CD
:103B5000D4F80C80019E0BEB870728F80760D4F897
:103B60000CC0079F3CF80770C01B891B00B209B24C
:103B7000521C26699642ADD8BAF1000F84D10021BB
:103B8000099816F078FE012826D000270020ADF80D
:103B90000800ADF80C0003A902A8CDE900012089B6
:103BA000B4F9022003B2287818991DF00AF9E878D0
:103BB000384207D0099816F0E7F8BDF80810084415
:103BC000ADF808000B99099816F060F806464FF416
:103BD000FA682AE1FFE7FEE70127D7E79C4930466C
:103BE00017F0BBFA00286FD10021304616F0AEFE68
:103BF000F0B34FF00009484621690FE0E26800EB9E
:103C0000800352F82320B24207D1E16800EB800222
:103C10000BEB820031F9009002E0401C8142EDD8AC
:103C2000E878C007708C04D020F4806040F4006015
:103C300003E020F4006040F48060708406F114001A
:103C4000049982468847484528D0304617F06CFDD5
:103C5000B08AADF80000F08AADF80200308BADF804
:103C60000400708BADF8060049465046069A00E005
:103C700010E090476A462921304611F0E9FA3046B3
:103C800016F016F93246222111F0E2FA304617F00A
:103C90004BFD03E0708C20F44060708400200090A5
:103CA0006878012811D0022817D1059906F114006F
:103CB0008847B4F90010491C21F00101081A00EBF3
:103CC000D07040F34F0007E0A7E0059906F114001B
:103CD00088472188081A00B20090E878384208D056
:103CE000049906F114008847BDF80810081AADF8C9
:103CF0000800304600216B2217F00CF80FFA80F90B
:103D0000304600216C2217F005F80FFA80FA304691
:103D100017F0D3F90190304616F089F80146C9F33F
:103D2000413001280FD129F4C04040450BDCB0F5EB
:103D30007A7F01DDC0F57A70019A5043642290FBCE
:103D4000F2F00FFA80F9CAF3413001280ED12AF4BB
:103D5000C04040450ADCB0F57A7F01DDC0F57A70DD
:103D60004843642190FBF1F00FFA80FAB18A16986B
:103D7000F28A411A01EB0900179900B28A1A02EB84
:103D80000A01EA7809B2D207002A02D0BDF9082058
:103D900000E0009A10440FFA80FA01D0009801E088
:103DA000BDF9080008440FFA80F95AEA09011BD04E
:103DB000304617F0B9FCB18A01EB0A00B082318BB2
:103DC00001EB0A003083F18A01EB0900F082718B6C
:103DD00001EB09007083304617F0A6FC00234A4629
:103DE0005146304617F046FDE87838420CD1049928
:103DF00006F11400884719990844BDF80C100844CE
:103E0000BDF80810084406E0BDF80C1019980844E5
:103E1000BDF80810081AADF80800E8780BAAC0F33E
:103E20008001099808F0EEFF0646002E04D0DDE977
:103E30000B0188427FF4D2AE0DB0BDE8F08F0000D8
:103E40005BFD000851FD0008F7FC00089FFC00081E
:103E5000010006002DE9F04F91B00E0005463FD05D
:103E60002E83286808B114F09DFA06EB460006215F
:103E700001EB400014F00AFA286040B3022101EB84
:103E800046010144E960042101EB86010144C5E9D2
:103E9000010101210024012E1AD0F000083014F095
:103EA00023FA814600EB860000F10408B00000B25E
:103EB000A346ADF81000C0F101028010ADF812B0B9
:103EC0000FFA82FA5C46CDF828B00690ABE0FEE728
:103ED000B4220270E8680480E8684180A868048021
:103EE00011B0BDE8F08F0027BDF81220BAF1000F25
:103EF00007DC032101EB42010AEB01000FFA80FA13
:103F00000CE0BDF810100523521A03EB420202EB3D
:103F10000A00491E0FFA80FAADF81010BDF8120021
:103F2000401CADF8120004A800F0E9F868B1BDF932
:103F3000100006A9821041F827200AA900F003000A
:103F400041F827007F1C042FCEDB042F71D1099983
:103F50000698884212D129F8140028F814B0DDE937
:103F60000A010144DDE90C20104408446968085541
:103F7000696800010855641C24B252E00799884220
:103F800019D029F8140028F814B06A680A98105556
:103F90006A6800011055641C069A20B2521E29F866
:103FA000102028F810B0DDE90B120A440D99091D04
:103FB00011446A682FE0089929F81400884228F80B
:103FC00014B0DDE90A025946104412D06A6810554F
:103FD0006A6800011055641C069A20B2521E29F826
:103FE000102028F81010DDE90C12114408316A681D
:103FF00011E00C9A10446A6810556A680001105567
:10400000641C069A20B2521E29F8102028F81010BD
:104010000D996A680C3111546A6809011154401CE9
:1040200004B20BF1010B04A800F069F800287FF43A
:104030005AAF40F2D32016FB00F109EB440288127C
:1040400032F9022C824205D108EB440232F9022CEB
:1040500082421AD0A1EB8021B1F5007F03DC4943F5
:1040600041F3CF3106E0C1F58061494341F3CF31DF
:10407000C1F10F0129F8140028F8140068680155EF
:10408000686809010155641C24B2A01E0EE000BF3F
:1040900038F8102029F8142039F8102028F81420B6
:1040A00069680A5C0A55641C24B2401E0028EFDAD5
:1040B000EA680021084611801BE0EA6822F8110036
:1040C000AB6839F8102023F811200AE0AE6839F9FE
:1040D000102036F81130934200DA1A4626F81120E3
:1040E000401C38F910208A4201D1A042EEDB491C65
:1040F00009B2A042E1DB484614F042F9F0E6B0F91B
:104100000210B0F90000814201DC0120704700205C
:10411000704700000E4810B50178002916D0002124
:1041200001700D490B4C0A780CA1A06813F013FE26
:104130000C49E0680A7809A113F00DFE0A4960698C
:104140000A78BDE8104005A113F005BE10BD0000BF
:104150000A0000207415002010020020253032646F
:1041600000000000110200201202002017B581B0EB
:10417000022A03D8BDF8080004B010BDBDF808300D
:10418000BDF80400D90A01EBD0211F2900D31F215B
:1041900061F3CF20C3F34511C0F345142144ADF8BA
:1041A00004003F2900D33F2161F34A1003F01F01AF
:1041B00000F01F031944ADF804001F2900D31F218C
:1041C00061F30400ADF80400FF2A07D0DDE9010126
:1041D0000DF028FB0090BDF80000CDE780B2CBE7E2
:1041E00017B581B0022A03D8BDF8080004B010BD8D
:1041F000BDF80400BDF80810C30ACC0A13FB04F391
:104200005B0963F3CF2000F01F0301F01F0413FBD1
:1042100004F35B0963F30400C0F34513C1F34511D4
:1042200013FB01F1890961F34A10ADF80400FF2A7C
:1042300007D0DDE901010DF0F5FA0090BDF80000AE
:10424000D4E780B2D2E717B581B0022A03D8BDF80F
:10425000080004B010BDBDF80830BDF80400D90A4C
:10426000A1EBD021002900DC002161F3CF20C3F3B2
:104270004511C0F34514091BADF80400002900DC0A
:10428000002161F34A1003F01F0100F01F03C91A57
:10429000ADF80400002900DC002161F30400ADF852
:1042A0000400FF2A07D0DDE901010DF0BBFA009000
:1042B000BDF80000CDE780B2CBE7F8B5044610F0BA
:1042C000C3FF0646204610F081FF0546304615F034
:1042D000EFFD04462B2D34D00A2D31D112F050FBC6
:1042E00010B1007901282BD06946304615F046FE02
:1042F00094F82C0010F00C0F30462BD015F044FD34
:1043000005460021204616F0C2FA0128BDF900003A
:1043100005EBD5711BD000EB610090FBF5F001B20D
:10432000002900DA0021608D4FF00102884220460A
:104330001BD01AF0D5FD00221C21204610F088FF6A
:10434000F8BD618DBDE8F84000221AF0C9BDC0EB90
:104350006100E2E715F0FEFCBDF9021000EBD0723F
:1043600001EB620191FBF0F0D9E71AF0B9FDF8BD5D
:104370002DE9FF4F89B00446169EDDE919577000FC
:10438000DDF86090DDF828A00FFA80FBB9F1040F8A
:1043900022D0B9F1060F1FD0B9F1050F5CD0B9F1E9
:1043A000140F56D1B4F90000B4F90210CDF80CB0D6
:1043B00006FB01030AEB43020092E2884FF000087B
:1043C000511A491C0FFA81F9A188081A401C0FFAEA
:1043D00080FA4FEA4A0B81E020460BF06CFC014664
:1043E0000390384614F01AF9B4F90000B4F90280C9
:1043F000A18806FB0802081A401C00B20690400083
:104400000AEB420A2E4602900CE051463046029AD0
:1044100014F004F8069808F10108DA4406EB4006A7
:104420000FFA88F8B4F906004045EEDAB9F1060F44
:104430000FD100224FF4FC60ADF80000114605E0FA
:1044400035F81130834200D17A54491C039B9942BC
:10445000F6D30DB0BDE8F08FB4F90010B4F9023016
:1044600006FB031000EB400202EB0A00A288511A7F
:10447000491C0AB2B11A01EB41010EB2E188C91A16
:10448000491C0CB2002317E000210DE090F802C097
:1044900007F801C010F801CB10F8028B0CEB082CC8
:1044A00025F811C0491C09B29142EFDB5B1C05EBFA
:1044B0004205174430441BB2A342E5DBC9E75A4624
:1044C0002846009913F0AAFF0099039805EB4A05C6
:1044D0000844009008F101000FFA80F8C845EEDBAF
:1044E000DDE90A014A000C9902FB0100B4F9001051
:1044F000B4F9022006FB02110D18002408E0524610
:104500002946384613F08AFF641C5744354424B2C8
:104510004C45F4DB9DE70146002041F6FF7200E0C8
:10452000401C31F910309342FAD170471CB5044653
:1045300090F8540000F0010088422DD094F8540007
:1045400011B140F0010001E020F0010084F85400B6
:1045500004F1480168460BF093FB606ABDF8001057
:10456000828A1144ADF80010BDF80210C08A0844D8
:10457000ADF80200606ABDF80410808A0844ADF806
:104580000400606ABDF80610C08A0844ADF8060051
:104590006946204617F0EBF81CBD08B508461146E1
:1045A0000CF0F1FF0090BDF8000008BD2DE9F04FC0
:1045B0000746C87A89B015460E46022803D801205E
:1045C00009B0BDE8F08F18463269B168FCF754FFB6
:1045D000041EF5D0207D00F01F0011F092FB4FF477
:1045E000807808B1062011E0207D00F01F000E2821
:1045F00006D014280AD011F074FB30B1052005E074
:1046000030884FF00E0930B902E00420814606E000
:104610007088404503D000204FF00509A061226A50
:1046200022B1294638461EF0DCFEB7E0A069E0B3AF
:10463000294602A80BF0EEFAB6F9003013B97088DB
:10464000404529D0A88829886A88401A401C01B2B0
:10465000E88806F1040C801A401C02B27088CDE98B
:10466000000C02A8FCF752FEBDF808002988084497
:10467000ADF80800BDF80A1068880844ADF80A00D3
:10468000BDF80C0029880844ADF80C00BDF80E10E8
:1046900068880844ADF80E0002AA04A8B968FCF7BF
:1046A000E8FB00287AD004A800E00DE0D7F80880E5
:1046B000B860CDF800902A4631463846A3690DF01F
:1046C000A3FFC7F8088069E02A4604A8B968FCF788
:1046D000D0FBE0B3BDF81400BDF81010401A401C28
:1046E0000FFA80FB0BEB4B0013F0FEFD039004A9C7
:1046F00001A8D7F808A00BF08DFA012101A80BF052
:1047000027FBBDF91000B5F90010BDF91280401A61
:104710000690B5F90200A8EB000536E001AA514663
:1047200007A8FCF7A6FB70B30398009006985B46B9
:1047300001B22AB2204611F0EFFE01280ED0204629
:1047400011F03FFE039813F01BFE204600E025E029
:1047500011F037FE0020C7F808A031E707A8B860BD
:10476000CDF8009001AA31463846039B0DF04CFF6E
:10477000BDF80600401CADF80600BDF80A00401C5C
:10478000ADF80A006D1C08F10108BDF9160040459E
:10479000C4DAC7F808A0039813F0F2FD204611F020
:1047A00010FE0CE7034A116813685B1A8342FBD3BF
:1047B000704700000000002070B5054612F0E0F8D8
:1047C0000646286B1BF05EF83168898B884223D23D
:1047D00095F83C006C6A10F0030105D064200129B3
:1047E00006D0022909D106E0002060F30F0404E09E
:1047F00060F3174401E060F31F64304612F014FACE
:10480000214628460DF008FB30B100221C21284625
:1048100010F01EFD012803D11BF03AF82863012097
:1048200070BD00002DE9F04F99B0074614468A4646
:1048300014A80DF0C5FC4FF4A021384615F0FBFF7D
:104840009DF85D1060F382018DF85D10A1882088CD
:10485000091A491C09B201EBD1714E103044ADF870
:104860006000608800213044ADF86200384616F0E0
:10487000B3F88146514602A815F046F814A80A90EC
:104880004FF400300F902F4803900020049007F160
:1048900030008346FDF7BAF84EE02079032847D16F
:1048A000208BADF85000208AADF852006079FD28C9
:1048B00001D9484602E010FB09F0000A8DF85C00BF
:1048C0002568B5F92030E88B18440090D5E9051229
:1048D000A06813F0BDFC8046B5F92030E88B184481
:1048E0000090D5E90512E06813F0B2FC1FFA88F5D4
:1048F000ADF854501FFA80F8ADF85680608B02AACC
:104900003044ADF8440018A80B901A21139438468F
:1049100010F09EFCCDE90058BDF8443018AA14A947
:1049200050460DF03DFC02AA1B21384610F090FCC9
:1049300021465846FDF767F80400AED119B0BDE82E
:10494000F08F0000646702082DE9F74FC878A0B027
:104950000C4602287DD9114601A80BF052F9B4F992
:104960002000012829DD94F82200FD2825D3208885
:1049700018B394F82300BDF804104008C0F3800277
:104980001144ADF80410BDF80610C0F3400008440F
:10499000ADF8060094F82310BDF808004908C1F3EB
:1049A000C001401AADF8080094F82310BDF80A00C1
:1049B000C1F34001401AADF80A00209801A98268AD
:1049C00005A8FCF756FA002843D0E07B10F0070654
:1049D00019D0E088ADF80000BDF800006189884278
:1049E00000D1002601A80EF061FB07461C210EA88D
:1049F000FBF74EFDA0788DF85100BDF80000ADF832
:104A000040001FB105E060680090E5E7208800B92C
:104A1000EEB3E078FD2800D3FF208346BDF8080000
:104A2000BDF80410401A401C0FFA80FABDF80A00C5
:104A3000BDF80610401A401C01B289465046CA45CE
:104A400000DB0846B4F90050B5EB600F00DB451001
:104A500000E043E0BDF81810BDF81400081A401C2F
:104A60000FFA80F84FF0FF301D9000200790002DC6
:104A700000DC87B1404613F037FC079000232A463C
:104A800001A916A80EF07EFD002116A800E01CE08A
:104A90000EF02CF91D90BDF81400ADF80C00BDF817
:104AA0001800ADF810000798119003A80E9013900D
:104AB000FF208DF850004A465146A01D10F004FF1B
:104AC000040018D0022E0CD015E001A80E90E0785A
:104AD0008DF850000EA920980FF01AF823B0BDE809
:104AE000F08FBDF91410A06800EB4100BDF904106F
:104AF000A0EB41000F90002F7DD0BDF9165027E0AC
:104B00002FB2ADF80E70ADF81270424659460798B4
:104B100013F024FDBDF9141043463A4607980EF0F1
:104B200087FA8DF84800012802D102208DF848004C
:104B3000012E08D1BDF90610A068691A00EB4100EA
:104B40000088ADF840000EA920980EF0E1FF6D1C22
:104B5000BDF91A00A842D3DAB7E000BFBDF80600DD
:104B6000BDF9161038440FFA80F9BDF80A00C01BD1
:104B70000FFA80FA494503DDBDF91A10514544DBAF
:104B800042465946079813F0E9FCBDF90C1043461C
:104B90004A4607980EF04CFA8DF84800012802D1D9
:104BA00002208DF84800BDF91610494513DCADF818
:104BB0000E90ADF81290012E09D1BDF90620A16822
:104BC000A9EB020001EB40000088ADF840000EA9FF
:104BD00020980EF09DFFBDF91A10514515DBADF878
:104BE0000EA0ADF812A0012E0BD1BDF90600A268EF
:104BF000AAEB000000E009E002EB40000088ADF8FD
:104C000040000EA920980EF083FF7F1CAF42A5DB69
:104C1000BDF80400ADF87800BDF80800ADF87C00E0
:104C2000BDF806002844ADF87A00BDF80A00401B24
:104C3000ADF87E001EA80EF039FA074630430CD0BE
:104C400001208DF84800BDF90A008DF850B0A0EBA6
:104C50000509BDF90600054435E0BDF806008DF8EC
:104C600050B02844ADF80E00BDF80A000EA9401B54
:104C7000ADF812000020119020980EF049FF24E0BA
:104C80006FB142465946079813F068FCBDF91410FD
:104C900043462AB207980EF0CBF98DF84800ADF8DC
:104CA0000E50ADF81250012E08D1BDF90600A168D2
:104CB000281A01EB40000088ADF840000EA92098AA
:104CC0000EF026FF6D1C4D45DADD079808B113F094
:104CD00057FB1D98401C05D01D980EF0FFFC16A830
:104CE0000EF0C8F9002C3FF4F9AE204610F0E6FDB6
:104CF000F4E62DE9F0410646086992B015460C46E7
:104D000000287DD0A07E02287AD929460EA8B26854
:104D1000FCF7AFF8002873D00EA8D6F80880B06072
:104D2000206911F0E3FD022806D06946206911F0E0
:104D300069FB012849D0C9E0002741F6FF70CDE9A1
:104D400000700297D4E904123B4610A81BF0DAF871
:104D500028460AF0C4FF01462A88BDF9400001EB4D
:104D6000D17102EB610100EBD072A1EB620108444A
:104D7000401EADF81000ADF80C1028460AF089FF6F
:104D800001466A88BDF9420001EBD17102EB610175
:104D900000EBD072A1EB62010844401EADF8120096
:104DA000ADF80E1005A80DF0F1FE60690590208B9E
:104DB000ADF82000A07E8DF82E00009703AA05A96B
:104DC000304623690DF042FC80E005A80DF024FC7C
:104DD000A0788DF82000208BADF81C00E07E8DF8C7
:104DE0001E00A07E8DF81F00207F4FF0FF3740B1DE
:104DF00000996888ADF8060007EB515108445DE062
:104E000066E028460AF06BFF298800EBD07001EBC2
:104E100060000099C1F38A21A0EB5100ADF80400B5
:104E200028460AF036FF698800EBD07001EB60017C
:104E30000098A1EB9051C0F38A22ADF80610BDF89E
:104E40000430521E1A4407EB5050ADF808200844B5
:104E5000ADF80A0001AA05A9304623690DF0A8FBA8
:104E600034E000992888C1F38A21ADF80400491E76
:104E7000084410E001AA05A9304623690DF098FB0B
:104E80000098BDF80410C0F38A200144ADF8041066
:104E9000BDF808100844ADF80800BDF90400B5F9E4
:104EA00004108842E6DDBDF80610009801EB505171
:104EB000ADF80610BDF80A1001EB5050ADF80A002D
:104EC000BDF90600B5F906108842CADDC6F80880AB
:104ED00012B0BDE8F081F0B5074691F8220087B026
:104EE00016460C4602286BD9208C002868D094F80E
:104EF000230010F03E0F63D0C00761D1B088318825
:104F00007288401A401C01B2F088B4F90050801A2F
:104F1000401C00B2814200DA0846B5EB600F00DDAC
:104F20004510314604A80AF06CFE94F82300BDF940
:104F30001020C0F344014807B4F9200001D42844EC
:104F400040421044ADF810000807BDF91420B4F930
:104F5000200001D428444042101AADF8140094F8FF
:104F60002300BDF9121040088007B4F9200001D4D5
:104F7000284440420844ADF8120094F82300BDF9DB
:104F800016104008C007B4F9200001D1284440425F
:104F9000081AADF81600208C281A00B2002800DA92
:104FA0000020A27894F82210CDE90212E18BADF82E
:104FB000041000902B4604AA3146384600F002F84F
:104FC00007B0F0BD2DE9FF4FA9B01D46DDE93879E6
:104FD000DDF8D88016460C46FF2F00D3FF27084681
:104FE0000EF064F82690284350EA080074D02998FF
:104FF0002146826808A8FBF73CFF002873D0BDF863
:105000002400BDF82010401A401C00B204901C215E
:105010000AA813F0D5FA049813F066F90D904FF032
:10502000FF302490002D0ADD00232A46214615A8D2
:105030000EF0A8FA002115A80DF058FE24900123C7
:10504000424631461BA80EF09DFA00211BA80DF028
:105050004DFE259001A80A900F90BDF8DC008DF858
:105060004070ADF830008DF84190B4F90000229006
:10507000B6F900304119994200DC1946B4F9040030
:105080000FFA81F92190B6F90410421B8A4200DB25
:105090000A460FFA82F8B4F902E0B6F902200EEBE4
:1050A00005009246504500DC1046B4F906B007B240
:1050B000B6F90620ABEB0500904200DB104600B2CB
:1050C0000590A8EB0900401C00B22790D6450DDCE6
:1050D00001200CE000E006E0009732462146379BB5
:1050E000299800F0B8F92DB0BDE8F08F0020824675
:1050F000934501DB012000E0002083462698D8B3C9
:10510000BDF82000ADF80400BDF82400ADF808009B
:10511000BDF9224022E000BFBAF1000F01D1A74241
:105120001BDCBBF1000F02D10598A0421ADB25B2AF
:10513000ADF80650ADF80A5004990D9813F06EFAC8
:10514000BDF920102A46049B0D980DF071FF8DF8D3
:1051500038000AA929980EF0DBFC641CBDF9260072
:10516000A042D9DA1BA80DF085FF25980EF0B6FAFB
:105170002498401C07D000E009E015A80DF07AFF44
:1051800024980EF0ABFA0D9813F0FAF8ABE72298DA
:10519000984201DC012000E0002013902198884211
:1051A00001DB012100E00021012000901398129101
:1051B000084000EA0A0010EA0B0F04D027983228B2
:1051C00001DA00200090012000998DF838001AEAD9
:1051D000010F0ED0ADF80490ADF808806088ADF8EE
:1051E000060070880AA9401EADF80A0029980EF042
:1051F0008FFC00991BEA010F0ED0ADF80490ADF8BA
:105200000880F0880AA9401CADF80600E088ADF8D7
:105210000A0029980EF07CFC139878B12088ADF82C
:1052200004003088ADF80670401EADF808000598FF
:10523000ADF80A000AA929980EF06AFC129878B114
:10524000B0880AA9401CADF80400A088ADF8080099
:105250000598ADF80670ADF80A0029980EF058FCD4
:105260000098C0B1BDF92400BDF92010A9F10102D8
:10527000ADF80410904200DB1046ADF80800401A6B
:10528000401C05B2002D70DD139850EA0A0066D06C
:10529000BDF9224061E0BDF82000ADF80400BDF882
:1052A0002400ADF80800B6F90200B4F90210401A63
:1052B000A84200DB05460FFA85F8002533E0608838
:1052C000284406B2E088401B07B2BDF92200B04274
:1052D00003DDBDF92600B84224DB04990D9813F0D4
:1052E0009DF9BDF904103246049B0D980DF0A0FE07
:1052F0008DF83800BDF92200B04207DCADF8066039
:10530000ADF80A600AA929980EF002FCBDF9260042
:10531000B84207DBADF80670ADF80A700AA9299803
:105320000EF0F6FB6D1C4545C9DB8DE026B2ADF8ED
:105330000660ADF80A6029460D9813F06FF9BDF9C3
:1053400004102B4632460D980DF072FE8DF8380091
:105350000AA929980EF0DCFB641CA742E6DC13982E
:1053600050EA0B001DD0059C16E01AE026B2ADF8FD
:105370000660ADF80A6029460D9813F04FF9BDF9A3
:1053800004102B4632460D980DF052FE8DF8380071
:105390000AA929980EF0BCFBBDF92600641CA042A6
:1053A000E4DABDF9200008F10101884200DC08467A
:1053B000BDF82410ADF80400081A401C05B2ADF881
:1053C0000810002D40DD129850EA0A001BD0BDF9EC
:1053D000224016E026B2ADF80660ADF80A60294614
:1053E0000D9813F01BF9BDF904102B4632460D98A9
:1053F0000DF01EFE8DF838000AA929980EF088FBE2
:10540000641CA742E6DC129850EA0B001CD0059CF5
:1054100015E026B2ADF80660ADF80A6029460D9891
:1054200013F0FCF8BDF904102B4632460D980DF030
:10543000FFFD8DF838000AA929980EF069FBBDF927
:105440002600641CA042E4DA1BA80DF013FE259888
:105450000EF044F98FE62DE9FF478EB00C468246E8
:1054600015461C2102A81A9E13F0AAF8CDF808D000
:10547000BDF84400ADF810008DF82060B4F90200CA
:10548000B5F90210884201DC012700E00027B4F9D9
:105490000600B5F90610884201DB012600E000266F
:1054A000B4F90000B5F90010884201DC012100E0E8
:1054B00000218946B4F90410B5F90420914201DBBA
:1054C000012100E00021ADF80000A088ADF8040043
:1054D0006088ADF8020068888846401EADF8060076
:1054E0001FB102A950460EF013FBE888401CADF82E
:1054F0000200E088ADF806001EB102A950460EF089
:1055000007FB2088ADF800002888401EADF8040095
:1055100017B1B5F9020001E0B4F90200ADF80200DC
:1055200016B1B5F9060001E0B4F90600ADF80600C1
:10553000B9F1000F03D002A950460EF0E9FAA8888D
:10554000401CADF80000A088ADF80400B8F1000FD1
:1055500003D002A950460EF0DBFA12B0BDE8F08786
:105560002DE9F04F8B46A2F57F4195B09146064656
:10557000FF3944D0746A208C8046984204D023843A
:10558000608C40F0080060844FF4802A5146204629
:1055900015F04DFC07465146204615F06FFC0546B8
:1055A000B7F90870304607F057FBB0F916107A19B2
:1055B00009FB021105EBD570A1EB6000ADF8060008
:1055C00038446D1E2844ADF80A00706A818AADF82F
:1055D0000410008BADF8080006A80EF0A3F806AA88
:1055E0005146204615F044FF01AA06A958460EF080
:1055F00085F8A4F82080608C20F00800608415B045
:10560000BDE8F08F2DE9F0430E46A2F57F4191B041
:1056100090460546FF3956D06C6A278C9F4204D0CD
:105620002384608C40F00800608406A80DF0AEFA78
:105630004FF4802906AA4946204615F06BFE4946DC
:10564000204615F01BFCADF82A00284607F004FBA5
:10565000050038D00698B5F91620B0F90810BDF944
:105660002A0000EB010C08FB0C2200EBD073A2EB2C
:1056700063021044491EADF80A200844ADF80E003C
:10568000A08AADF80800208BADF80C0002AA0EA885
:10569000B168FBF7EEFB88B10EA8D6F80880B060C1
:1056A000284611F036FF03460020009005F1140251
:1056B00006A930460CF0CAFFC6F808802784608C23
:1056C00020F00800608411B0BDE8F0832DE9F041BE
:1056D0002E4D074668680CF0EDFC04463868C66B32
:1056E000716B09B130468847686800680188408856
:1056F00011FB00F0E168884201D1012000E00020A8
:10570000216859B1616849B128B107E0686800684B
:10571000816A01B1884720690028F7D10120206102
:1057200069680968C9688A69D20702D089698907E6
:1057300000D400206061606908B1012500E0002507
:105740003868416971B1016911F0300F06D049071D
:1057500004D5D6E9001000F01BF803E0D6E90021DB
:10576000FEF75AF9206800280BD06168002908D09C
:105770003A68127CAA43D20703D1A268824202D1BE
:10578000A160BDE8F081A060FBE7000038000020C8
:105790002DE9F34F05468A4893B041680E68306999
:1057A000820701D542076ED4C0F3011002281ED033
:1057B000012801D0032866D100200F9008460CF084
:1057C00079FC8346A988B5F90000EA88091A491CC2
:1057D0000CB2B5F90210521A521C17B24FF4A05273
:1057E000B2FBF4F3BB420FDAB2FBF4F20DE0294650
:1057F0003046149A00F0F0F8149A15B02946304655
:10580000BDE8F04FFEF708B93A460C920791317C9B
:10581000C1F30111012905D06880611E0844E880A8
:105820000020BDE07188081A401EE880001B401C63
:105830006880F5E70C99A7EB0A00884200DD08466E
:1058400000B201900120CBF81000BAF1000F20D176
:10585000A7421EDB0194307CC0F30110032810D056
:1058600000202146149A00F0EAF8307CC0F30110C1
:10587000012809D031880798081A401EA880001B0B
:1058800056E00120EDE797E007982880079820442C
:1058900066E00F9820B94FF4205012F025FD0F90CC
:1058A000307CC0F3011003281BD000208646DDF8B1
:1058B00050C001990F980A9014FB01F0401E0D9002
:1058C000601E48430E9000208146884222DA0E9ADC
:1058D000BEF1000F02EB090001D00D9A101A002250
:1058E00012E00120E2E70A9BBEF1000F03EB400843
:1058F00063460CF1020C1B88A8F8003001D0084464
:1059000000E0401A521C12B2A242ECDB09F1010085
:1059100000B2D9E7307CC0F3011001281BD03188D8
:105920000798091AA1EB0A00401EA8800199401AA5
:10593000401C288001990AEB0108B84513DBDBF80D
:105940001800C0070FD0DBF8180080070BD5012026
:10595000CBF814000AE007985044288001990844C5
:10596000401EA880E6E70021CBF814100F9828B15C
:10597000024629463046FEF74FF805E0149AF8E74C
:10598000B16A09B130468847DBF810000028F7D12A
:1059900001981499604301EB400014900FFA88F0CD
:1059A0008246B842FFF646AF0F98002804D015B0E3
:1059B000BDE8F04F12F0E4BC15B0BDE8F08F000078
:1059C0003800002030B504880D88058010880880D4
:1059D000188810801C8030BDF8B58B880C884D88E5
:1059E0001B1BCC885B1C641B641C13FB04F300248E
:1059F0005B1E0DE002EB430602EB44073588ADF871
:105A00000050B7F800C0A6F800C05B1E3D80641CC3
:105A1000A342EFD843884C88CA881B1B5B1ECB80EF
:105A200043889A1A521E4A8003880C888A881B1B56
:105A30005B1E8B800088801A401E0880F8BD2DE90F
:105A4000F0470C4617468246002601EBD47931E038
:105A50000025601C00EBD07827E0A01B401E01B29F
:105A6000601B401E00B2BAF1000F0AD015FB0412F1
:105A700007EB420311FB040107EB410210FB04603A
:105A800009E010FB046207EB420311FB040007EB83
:105A9000400215FB041007EB400116FB045007EB16
:105AA0004000FFF78FFF6D1C2DB2B5EB680FD4DB04
:105AB000761C36B2B6EB690FCADBBDE8F087000092
:105AC0002DE9F047A2B005460FF0BEFB044628467C
:105AD0000FF082FB8246606A11F01BFD054694F8C8
